{
  "_format": "hh-sol-artifact-1",
  "contractName": "IdentityIssuer",
  "sourceName": "contracts/did/Issuer.sol",
  "abi": [
    {
      "anonymous": false,
      "inputs": [
        {
          "indexed": true,
          "internalType": "address",
          "name": "_user",
          "type": "address"
        },
        {
          "indexed": true,
          "internalType": "address",
          "name": "_identity",
          "type": "address"
        }
      ],
      "name": "IdentityRegistered",
      "type": "event"
    },
    {
      "inputs": [
        {
          "internalType": "address",
          "name": "_user",
          "type": "address"
        }
      ],
      "name": "lookup",
      "outputs": [
        {
          "internalType": "address",
          "name": "",
          "type": "address"
        }
      ],
      "stateMutability": "view",
      "type": "function"
    },
    {
      "inputs": [
        {
          "components": [
            {
              "internalType": "string",
              "name": "name",
              "type": "string"
            }
          ],
          "internalType": "struct Structs.UserProfile",
          "name": "_user",
          "type": "tuple"
        }
      ],
      "name": "register",
      "outputs": [],
      "stateMutability": "nonpayable",
      "type": "function"
    },
    {
      "inputs": [],
      "name": "whoami",
      "outputs": [
        {
          "internalType": "address",
          "name": "",
          "type": "address"
        }
      ],
      "stateMutability": "view",
      "type": "function"
    }
  ],
  "bytecode": "0x608060405234801561001057600080fd5b50612277806100206000396000f3fe60806040523480156200001157600080fd5b5060043610620000465760003560e01c80634da80ad7146200004b578063b3b36bb3146200006b578063d4b6b5da146200008d575b600080fd5b6200006960048036038101906200006391906200070f565b620000c3565b005b62000075620002b1565b604051620000849190620007a5565b60405180910390f35b620000ab6004803603810190620000a59190620007f3565b620003e7565b604051620000ba9190620007a5565b60405180910390f35b600073ffffffffffffffffffffffffffffffffffffffff166000803373ffffffffffffffffffffffffffffffffffffffff1673ffffffffffffffffffffffffffffffffffffffff16815260200190815260200160002060009054906101000a900473ffffffffffffffffffffffffffffffffffffffff1673ffffffffffffffffffffffffffffffffffffffff161462000193576040517f08c379a00000000000000000000000000000000000000000000000000000000081526004016200018a9062000886565b60405180910390fd5b6000338260000151604051620001a9906200051f565b620001b69291906200092a565b604051809103906000f080158015620001d3573d6000803e3d6000fd5b509050806000803373ffffffffffffffffffffffffffffffffffffffff1673ffffffffffffffffffffffffffffffffffffffff16815260200190815260200160002060006101000a81548173ffffffffffffffffffffffffffffffffffffffff021916908373ffffffffffffffffffffffffffffffffffffffff1602179055508073ffffffffffffffffffffffffffffffffffffffff163373ffffffffffffffffffffffffffffffffffffffff167f6ae73635c50d24a45af6fbd5e016ac4bed179addbc8bf24e04ff0fcc6d33af1960405160405180910390a35050565b60008073ffffffffffffffffffffffffffffffffffffffff166000803373ffffffffffffffffffffffffffffffffffffffff1673ffffffffffffffffffffffffffffffffffffffff16815260200190815260200160002060009054906101000a900473ffffffffffffffffffffffffffffffffffffffff1673ffffffffffffffffffffffffffffffffffffffff16141562000383576040517f08c379a00000000000000000000000000000000000000000000000000000000081526004016200037a90620009ae565b60405180910390fd5b6000803373ffffffffffffffffffffffffffffffffffffffff1673ffffffffffffffffffffffffffffffffffffffff16815260200190815260200160002060009054906101000a900473ffffffffffffffffffffffffffffffffffffffff16905090565b60008073ffffffffffffffffffffffffffffffffffffffff166000808473ffffffffffffffffffffffffffffffffffffffff1673ffffffffffffffffffffffffffffffffffffffff16815260200190815260200160002060009054906101000a900473ffffffffffffffffffffffffffffffffffffffff1673ffffffffffffffffffffffffffffffffffffffff161415620004b9576040517f08c379a0000000000000000000000000000000000000000000000000000000008152600401620004b09062000a20565b60405180910390fd5b6000803373ffffffffffffffffffffffffffffffffffffffff1673ffffffffffffffffffffffffffffffffffffffff16815260200190815260200160002060009054906101000a900473ffffffffffffffffffffffffffffffffffffffff169050919050565b6117ff8062000a4383390190565b6000604051905090565b600080fd5b600080fd5b600080fd5b6000601f19601f8301169050919050565b7f4e487b7100000000000000000000000000000000000000000000000000000000600052604160045260246000fd5b620005918262000546565b810181811067ffffffffffffffff82111715620005b357620005b262000557565b5b80604052505050565b6000620005c86200052d565b9050620005d6828262000586565b919050565b600080fd5b600080fd5b600080fd5b600067ffffffffffffffff82111562000608576200060762000557565b5b620006138262000546565b9050602081019050919050565b82818337600083830152505050565b6000620006466200064084620005ea565b620005bc565b905082815260208101848484011115620006655762000664620005e5565b5b6200067284828562000620565b509392505050565b600082601f830112620006925762000691620005e0565b5b8135620006a48482602086016200062f565b91505092915050565b600060208284031215620006c657620006c562000541565b5b620006d26020620005bc565b9050600082013567ffffffffffffffff811115620006f557620006f4620005db565b5b62000703848285016200067a565b60008301525092915050565b60006020828403121562000728576200072762000537565b5b600082013567ffffffffffffffff8111156200074957620007486200053c565b5b6200075784828501620006ad565b91505092915050565b600073ffffffffffffffffffffffffffffffffffffffff82169050919050565b60006200078d8262000760565b9050919050565b6200079f8162000780565b82525050565b6000602082019050620007bc600083018462000794565b92915050565b620007cd8162000780565b8114620007d957600080fd5b50565b600081359050620007ed81620007c2565b92915050565b6000602082840312156200080c576200080b62000537565b5b60006200081c84828501620007dc565b91505092915050565b600082825260208201905092915050565b7f596f752061726520616c72656164792072656769737465726564000000000000600082015250565b60006200086e601a8362000825565b91506200087b8262000836565b602082019050919050565b60006020820190508181036000830152620008a1816200085f565b9050919050565b600081519050919050565b60005b83811015620008d3578082015181840152602081019050620008b6565b83811115620008e3576000848401525b50505050565b6000620008f682620008a8565b62000902818562000825565b935062000914818560208601620008b3565b6200091f8162000546565b840191505092915050565b600060408201905062000941600083018562000794565b8181036020830152620009558184620008e9565b90509392505050565b7f596f7520646f206e6f74206861766520616e206964656e746974790000000000600082015250565b600062000996601b8362000825565b9150620009a3826200095e565b602082019050919050565b60006020820190508181036000830152620009c98162000987565b9050919050565b7f486520646f6573206e6f74206861766520616e206964656e7469747900000000600082015250565b600062000a08601c8362000825565b915062000a1582620009d0565b602082019050919050565b6000602082019050818103600083015262000a3b81620009f9565b905091905056fe60806040523480156200001157600080fd5b50604051620017ff380380620017ff8339818101604052810190620000379190620004b8565b81806040518060400160405280601f81526020017f4964656e7469666965642061646472657373206973206e6f742076616c696400815250600073ffffffffffffffffffffffffffffffffffffffff168273ffffffffffffffffffffffffffffffffffffffff1614158190620000e5576040517f08c379a0000000000000000000000000000000000000000000000000000000008152600401620000dc91906200057b565b60405180910390fd5b50336000806101000a81548173ffffffffffffffffffffffffffffffffffffffff021916908373ffffffffffffffffffffffffffffffffffffffff16021790555082600160006101000a81548173ffffffffffffffffffffffffffffffffffffffff021916908373ffffffffffffffffffffffffffffffffffffffff16021790555060008054906101000a900473ffffffffffffffffffffffffffffffffffffffff1673ffffffffffffffffffffffffffffffffffffffff16600073ffffffffffffffffffffffffffffffffffffffff167fd7850b647d2d788d7d51865cb8181f56b7ee1fbab1a965018c2168bc9b2025cd60405160405180910390a35050508060029080519060200190620001fd92919062000206565b50505062000604565b8280546200021490620005ce565b90600052602060002090601f01602090048101928262000238576000855562000284565b82601f106200025357805160ff191683800117855562000284565b8280016001018555821562000284579182015b828111156200028357825182559160200191906001019062000266565b5b50905062000293919062000297565b5090565b5b80821115620002b257600081600090555060010162000298565b5090565b6000604051905090565b600080fd5b600080fd5b600073ffffffffffffffffffffffffffffffffffffffff82169050919050565b6000620002f782620002ca565b9050919050565b6200030981620002ea565b81146200031557600080fd5b50565b6000815190506200032981620002fe565b92915050565b600080fd5b600080fd5b6000601f19601f8301169050919050565b7f4e487b7100000000000000000000000000000000000000000000000000000000600052604160045260246000fd5b620003848262000339565b810181811067ffffffffffffffff82111715620003a657620003a56200034a565b5b80604052505050565b6000620003bb620002b6565b9050620003c9828262000379565b919050565b600067ffffffffffffffff821115620003ec57620003eb6200034a565b5b620003f78262000339565b9050602081019050919050565b60005b838110156200042457808201518184015260208101905062000407565b8381111562000434576000848401525b50505050565b6000620004516200044b84620003ce565b620003af565b90508281526020810184848401111562000470576200046f62000334565b5b6200047d84828562000404565b509392505050565b600082601f8301126200049d576200049c6200032f565b5b8151620004af8482602086016200043a565b91505092915050565b60008060408385031215620004d257620004d1620002c0565b5b6000620004e28582860162000318565b925050602083015167ffffffffffffffff811115620005065762000505620002c5565b5b620005148582860162000485565b9150509250929050565b600081519050919050565b600082825260208201905092915050565b600062000547826200051e565b62000553818562000529565b93506200056581856020860162000404565b620005708162000339565b840191505092915050565b600060208201905081810360008301526200059781846200053a565b905092915050565b7f4e487b7100000000000000000000000000000000000000000000000000000000600052602260045260246000fd5b60006002820490506001821680620005e757607f821691505b60208210811415620005fe57620005fd6200059f565b5b50919050565b6111eb80620006146000396000f3fe608060405234801561001057600080fd5b50600436106100935760003560e01c80637d447b25116100665780637d447b251461010c57806386af78fa1461012a578063a991a9cf14610148578063c47f002714610166578063d11a1f071461018257610093565b806317d7de7c146100985780631d143848146100b657806351335b50146100d457806354f81ae1146100f0575b600080fd5b6100a06101b2565b6040516100ad9190610a71565b60405180910390f35b6100be610244565b6040516100cb9190610ad4565b60405180910390f35b6100ee60048036038101906100e99190610c38565b61026d565b005b61010a60048036038101906101059190610cdc565b61043c565b005b610114610634565b6040516101219190610d24565b60405180910390f35b61013261068c565b60405161013f9190610d24565b60405180910390f35b6101506106e3565b60405161015d9190610ad4565b60405180910390f35b610180600480360381019061017b9190610d3f565b61070d565b005b61019c60048036038101906101979190610d3f565b610885565b6040516101a99190610a71565b60405180910390f35b6060600280546101c190610db7565b80601f01602080910402602001604051908101604052809291908181526020018280546101ed90610db7565b801561023a5780601f1061020f5761010080835404028352916020019161023a565b820191906000526020600020905b81548152906001019060200180831161021d57829003601f168201915b5050505050905090565b60008060009054906101000a900473ffffffffffffffffffffffffffffffffffffffff16905090565b600160009054906101000a900473ffffffffffffffffffffffffffffffffffffffff1673ffffffffffffffffffffffffffffffffffffffff163373ffffffffffffffffffffffffffffffffffffffff16146102fd576040517f08c379a00000000000000000000000000000000000000000000000000000000081526004016102f490610e5b565b60405180910390fd5b60038260405161030d9190610eb7565b9081526020016040518091039020818060405160200161032d9190610eb7565b60405160208183030381529060405280519060200120826040516020016103549190610f62565b6040516020818303038152906040528051906020012014156103ab576040517f08c379a00000000000000000000000000000000000000000000000000000000081526004016103a290610feb565b60405180910390fd5b826003856040516103bc9190610eb7565b908152602001604051809103902090805190602001906103dd929190610935565b507f9c269e4c902154d83d7dd53074a3e1504296c3e0d4308bcedb971c3d674cb58e84846003876040516104119190610eb7565b908152602001604051809103902060405161042e939291906110a0565b60405180910390a150505050565b60008054906101000a900473ffffffffffffffffffffffffffffffffffffffff1673ffffffffffffffffffffffffffffffffffffffff163373ffffffffffffffffffffffffffffffffffffffff16146104ca576040517f08c379a00000000000000000000000000000000000000000000000000000000081526004016104c19061115e565b60405180910390fd5b806040518060400160405280601f81526020017f4e6577206973737565722061646472657373206973206e6f742076616c696400815250600073ffffffffffffffffffffffffffffffffffffffff168273ffffffffffffffffffffffffffffffffffffffff1614158190610574576040517f08c379a000000000000000000000000000000000000000000000000000000000815260040161056b9190610a71565b60405180910390fd5b508273ffffffffffffffffffffffffffffffffffffffff1660008054906101000a900473ffffffffffffffffffffffffffffffffffffffff1673ffffffffffffffffffffffffffffffffffffffff167fd7850b647d2d788d7d51865cb8181f56b7ee1fbab1a965018c2168bc9b2025cd60405160405180910390a3826000806101000a81548173ffffffffffffffffffffffffffffffffffffffff021916908373ffffffffffffffffffffffffffffffffffffffff160217905550505050565b6000600160009054906101000a900473ffffffffffffffffffffffffffffffffffffffff1673ffffffffffffffffffffffffffffffffffffffff163373ffffffffffffffffffffffffffffffffffffffff1614905090565b60008060009054906101000a900473ffffffffffffffffffffffffffffffffffffffff1673ffffffffffffffffffffffffffffffffffffffff163373ffffffffffffffffffffffffffffffffffffffff1614905090565b6000600160009054906101000a900473ffffffffffffffffffffffffffffffffffffffff16905090565b600160009054906101000a900473ffffffffffffffffffffffffffffffffffffffff1673ffffffffffffffffffffffffffffffffffffffff163373ffffffffffffffffffffffffffffffffffffffff161461079d576040517f08c379a000000000000000000000000000000000000000000000000000000000815260040161079490610e5b565b60405180910390fd5b600281806040516020016107b19190610eb7565b60405160208183030381529060405280519060200120826040516020016107d89190610f62565b60405160208183030381529060405280519060200120141561082f576040517f08c379a000000000000000000000000000000000000000000000000000000000815260040161082690610feb565b60405180910390fd5b8260029080519060200190610845929190610935565b507f6c20b91d1723b78732eba64ff11ebd7966a6e4af568a00fa4f6b72c20f58b02a60028460405161087892919061117e565b60405180910390a1505050565b60606003826040516108979190610eb7565b908152602001604051809103902080546108b090610db7565b80601f01602080910402602001604051908101604052809291908181526020018280546108dc90610db7565b80156109295780601f106108fe57610100808354040283529160200191610929565b820191906000526020600020905b81548152906001019060200180831161090c57829003601f168201915b50505050509050919050565b82805461094190610db7565b90600052602060002090601f01602090048101928261096357600085556109aa565b82601f1061097c57805160ff19168380011785556109aa565b828001600101855582156109aa579182015b828111156109a957825182559160200191906001019061098e565b5b5090506109b791906109bb565b5090565b5b808211156109d45760008160009055506001016109bc565b5090565b600081519050919050565b600082825260208201905092915050565b60005b83811015610a125780820151818401526020810190506109f7565b83811115610a21576000848401525b50505050565b6000601f19601f8301169050919050565b6000610a43826109d8565b610a4d81856109e3565b9350610a5d8185602086016109f4565b610a6681610a27565b840191505092915050565b60006020820190508181036000830152610a8b8184610a38565b905092915050565b600073ffffffffffffffffffffffffffffffffffffffff82169050919050565b6000610abe82610a93565b9050919050565b610ace81610ab3565b82525050565b6000602082019050610ae96000830184610ac5565b92915050565b6000604051905090565b600080fd5b600080fd5b600080fd5b600080fd5b7f4e487b7100000000000000000000000000000000000000000000000000000000600052604160045260246000fd5b610b4582610a27565b810181811067ffffffffffffffff82111715610b6457610b63610b0d565b5b80604052505050565b6000610b77610aef565b9050610b838282610b3c565b919050565b600067ffffffffffffffff821115610ba357610ba2610b0d565b5b610bac82610a27565b9050602081019050919050565b82818337600083830152505050565b6000610bdb610bd684610b88565b610b6d565b905082815260208101848484011115610bf757610bf6610b08565b5b610c02848285610bb9565b509392505050565b600082601f830112610c1f57610c1e610b03565b5b8135610c2f848260208601610bc8565b91505092915050565b60008060408385031215610c4f57610c4e610af9565b5b600083013567ffffffffffffffff811115610c6d57610c6c610afe565b5b610c7985828601610c0a565b925050602083013567ffffffffffffffff811115610c9a57610c99610afe565b5b610ca685828601610c0a565b9150509250929050565b610cb981610ab3565b8114610cc457600080fd5b50565b600081359050610cd681610cb0565b92915050565b600060208284031215610cf257610cf1610af9565b5b6000610d0084828501610cc7565b91505092915050565b60008115159050919050565b610d1e81610d09565b82525050565b6000602082019050610d396000830184610d15565b92915050565b600060208284031215610d5557610d54610af9565b5b600082013567ffffffffffffffff811115610d7357610d72610afe565b5b610d7f84828501610c0a565b91505092915050565b7f4e487b7100000000000000000000000000000000000000000000000000000000600052602260045260246000fd5b60006002820490506001821680610dcf57607f821691505b60208210811415610de357610de2610d88565b5b50919050565b7f4f6e6c7920746865206964656e7469666965722063616e20706572666f726d2060008201527f7468697320616374696f6e000000000000000000000000000000000000000000602082015250565b6000610e45602b836109e3565b9150610e5082610de9565b604082019050919050565b60006020820190508181036000830152610e7481610e38565b9050919050565b600081905092915050565b6000610e91826109d8565b610e9b8185610e7b565b9350610eab8185602086016109f4565b80840191505092915050565b6000610ec38284610e86565b915081905092915050565b60008190508160005260206000209050919050565b60008154610ef081610db7565b610efa8186610e7b565b94506001821660008114610f155760018114610f2657610f59565b60ff19831686528186019350610f59565b610f2f85610ece565b60005b83811015610f5157815481890152600182019150602081019050610f32565b838801955050505b50505092915050565b6000610f6e8284610ee3565b915081905092915050565b7f546865206e65772076616c7565206d757374206e6f7420626520657175616c2060008201527f746f20746865206f6c642076616c756500000000000000000000000000000000602082015250565b6000610fd56030836109e3565b9150610fe082610f79565b604082019050919050565b6000602082019050818103600083015261100481610fc8565b9050919050565b60008190508160005260206000209050919050565b6000815461102d81610db7565b61103781866109e3565b94506001821660008114611052576001811461106457611097565b60ff1983168652602086019350611097565b61106d8561100b565b60005b8381101561108f57815481890152600182019150602081019050611070565b808801955050505b50505092915050565b600060608201905081810360008301526110ba8186610a38565b905081810360208301526110ce8185610a38565b905081810360408301526110e28184611020565b9050949350505050565b7f4f6e6c7920746865206973737565722063616e20706572666f726d207468697360008201527f20616374696f6e00000000000000000000000000000000000000000000000000602082015250565b60006111486027836109e3565b9150611153826110ec565b604082019050919050565b600060208201905081810360008301526111778161113b565b9050919050565b600060408201905081810360008301526111988185611020565b905081810360208301526111ac8184610a38565b9050939250505056fea264697066735822122029ea6c86fc23bcde5ab0d7863c70265f364a45bd82dcea600b6e281f997c1f8a64736f6c63430008090033a2646970667358221220636d2d8263e8ff7c9abe82587ed251ec599f6001c08dab8aabc7610719caa30564736f6c63430008090033",
  "linkReferences": {},
  "deployedLinkReferences": {}
}